:020000040800F2
:10000000201400200101000855140008A90F000861
:10001000511400089D090008832900080000000011
:10002000000000000000000000000000D1220008D5
:100030003D0C00080000000081210008FD2400089C
:100040001B0100081B0100081B0100081B01000820
:100050001B0100081B0100081B0100081B01000810
:100060001B0100081B0100081B0100081B01000800
:100070001B0100081B0100081B0100081B010008F0
:100080001B0100081B0100081B0100081B010008E0
:100090001B0100081B0100081B0100081B010008D0
:1000A0001B0100081B0100081B0100081B010008C0
:1000B0001B010008612500081B0100081B01000846
:1000C0001B0100081B0100081B0100081B010008A0
:1000D0001B0100081B0100080927000881270008F0
:1000E0001B0100081B0100081B010008DFF80CD0F1
:1000F00000F0A6FA00480047B5550008201400207B
:100100000648804706480047FEE7FEE7FEE7FEE7B1
:10011000FEE7FEE7FEE7FEE7FEE7FEE70125000853
:10012000ED00000840EA01039B0703D009E008C97D
:10013000121F08C0042AFAD203E011F8013B00F8AC
:10014000013B521EF9D27047D2B201E000F8012BF8
:10015000491EFBD270470022F6E710B513460A4647
:1001600004461946FFF7F0FF204610BD2DE9FE4F6B
:1001700081EA030404F0004421F0004100944FF0B0
:10018000000B23F0004350EA01045ED052EA03045E
:100190005BD0C3F30A54C1F30A552C44A4F2F334E0
:1001A0000194A0FB0254C1F3130141F48011C3F385
:1001B000130343F4801301FB024400FB034E840A43
:1001C000970A44EA815447EA8357A4FB07680295DB
:1001D0008D0A05FB07854FEA932C04FB0C54270579
:1001E000029D4FEA065847EA1637B5EB08056EEB55
:1001F000070C870E920E47EA811742EA8312A7FB8B
:100200000201B6EB0B0164EB00042B0D43EA0C3347
:100210005E1844EB1C50DA465146E7FB0201C5F379
:1002200013044FEA0B3343EA14534FEA0432019CA0
:1002300043EA0603A4F10C040294009CCDE900B447
:1002400000F0D8F803B0BDE8F08F00200146F9E7D0
:100250002DE9F04D81EA030404F0004B21F0004544
:1002600014464FF0000A23F0004150EA050220D066
:1002700054EA01021DD0C5F30A570246C5F3130321
:10028000C1F31300C1F30A5640F4801543F4801300
:10029000A7EB0608101BD64608F2FD3873EB0500E5
:1002A00002D308F1010801E092185B41B8F1000F98
:1002B00003DA00200146BDE8F08D00204FF48011E4
:1002C000064684460EE0171B73EB050705D3121B89
:1002D00063EB050306434CEA010C49084FEA300082
:1002E00092185B4150EA0107EDD152EA030012D0A7
:1002F00082EA040083EA0501084305D0101BAB41E4
:1003000006D20122002306E000224FF0004302E063
:100310006FF0010253101AEB06004CEB085110EB82
:100320000A0041EB0B01BDE8F04D00F054B80EB5EA
:1003300040F2334102910021CDE900110A460B46FB
:1003400000F058F803B000BD30B50B460146002060
:100350002022012409E021FA02F59D4205D303FA87
:1003600002F5491B04FA02F52844151EA2F1010208
:10037000F1DC30BD2DE9F05F0546002092469B463A
:1003800088460646814640241BE0284641464746AB
:10039000224600F076F953465A46C01A914110D3CE
:1003A00011461846224600F05DF92D1A67EB010848
:1003B0004F4622460120002100F054F917EB0009B6
:1003C0004E41201EA4F10104DFDC484631462A4696
:1003D0004346BDE8F09F10B5141E73F1000408DA1F
:1003E000401C41F1000192185B411A4301D120F0F9
:1003F000010010BD2DE9F04D92469B4611B1B1FAB6
:1004000081F202E0B0FA80F22032904600F02AF940
:1004100004460F4640EA0A0041EA0B0153465A4699
:10042000084313D0114653EA010019D0C8F1400225
:10043000504600F026F905460E46504659464246BB
:1004400000F010F9084305D0012004E020463946A9
:10045000BDE8F08D0020054346EAE0762C433743A3
:100460000A986305E40AA0EB08000022FD0A44EAAA
:1004700047540A3002D500200146E9E7010510196A
:100480006941DDE9084500196941BDE8F04DA2E781
:100490002DE9FE4F804681EA0300C00F0C46009014
:1004A00021F0004123F00045B8EB0200A94105D23C
:1004B0004046214690461C460B46024623F000402B
:1004C000104347D0270DC7F30A00C3F30A51029027
:1004D000401A019040286BDAC3F3130040F4801BEC
:1004E0000098924620B10023D2EB030A63EB0B0B7A
:1004F00001985946C0F14002504600F0B3F8064654
:100500000D4650465946019A00F0CBF810EB080012
:100510006141002487EA115284EAE7731A4340D00C
:10052000009A62B3019A012A4FEA075215DC001BB8
:1005300061EB02014FF0004202EA0752CDE90042AE
:10054000001C41F5801132462B46FFF753FF03B0E4
:10055000BDE8F08F40462146F9E7001B61EB020140
:10056000001C41F5801300185B412018A2F500170C
:1005700047EB030140EAD570B6196D4111E06D08F3
:100580004FEA360645EAC0754FEA0752001B61EB99
:100590000201001C41F5801149084FEA30000019A2
:1005A000514132462B4603B0BDE8F04FFFF713BF71
:1005B0000098012240000023D0EB020263EBE073BD
:1005C000009821464FEAE074B8EB000061EB0401AB
:1005D000E9E783F000435BE781F0004158E7C1F3AE
:1005E0000A52C1F3130140F2FF3341F480119A42E1
:1005F00002DA00200146704740F233439A42A2F2E9
:10060000334202DC524200F03CB800F02BB800004C
:1006100030B5041E71F1000404DB4FF00044404289
:1006200064EB0101141E73F1000405DB1C464FF05E
:100630000043524263EB0403994208BF904230BD2D
:10064000064C074D06E0E06840F0010394E807001F
:1006500098471034AC42F6D3FFF74CFD5C7E00089F
:100660007C7E0008202A04DB203A00FA02F10020F8
:1006700070479140C2F1200320FA03F319439040E0
:100680007047202A04DB203A21FA02F0002170474B
:1006900021FA02F3D040C2F12002914008431946EA
:1006A0007047202A06DBCB17203A41FA02F043EAD2
:1006B000E07306E041FA02F3D040C2F1200291401B
:1006C00008431946704770B58D1810F8014B14F0A7
:1006D000030201D110F8012B231106D110F8013BC0
:1006E00003E010F8016B01F8016B521EF9D1ABB1B8
:1006F00010F8012B04F00C048A1A0C2C03D0A2EB86
:1007000084129B1C08E010F8014BA2EB0422F8E7CE
:1007100012F8014B01F8014B5B1EF9D5A942D4D365
:10072000002070BD21B1826842F00102826003E0C6
:10073000826822F0010282607047000010B5044612
:100740001248844208D10121401501F047FD0021E3
:10075000601501F043FD17E00D48844208D10121E6
:10076000001501F03BFD0021201501F037FD0BE0E5
:100770000848844208D10121C80301F02FFD00215F
:100780004FF4004001F02AFD10BD0000002401409C
:1007900000280140003C0140014600208A6802F028
:1007A00004020AB1012000E0002070470146C86C35
:1007B00080B270470246002013680B400BB1012045
:1007C00000E000207047014600208A6802F008021D
:1007D0000AB1012000E000207047000030B5024659
:1007E0000020002350680F4C20400D790C6844EA2B
:1007F00005242043506090680B4C2040D1E90254FE
:100800002C434D7944EA450420439060D06A20F49B
:1008100070000C7C641EE4B2234340EA0350D062B3
:1008200030BD0000FFFEF0FFFDF7F1FFF0B504461C
:100830000D4600200021092D11DDE068A5F10A0612
:1008400006EB4607072606FA07F18843A5F10A06D4
:1008500006EB460603FA06F10843E0600CE0206967
:1008600005EB4507072606FA07F1884305EB450621
:1008700003FA06F108432061072A0FDA606B561E5F
:1008800006EB86071F2606FA07F18843561E06EB7D
:10089000860605FA06F10843606322E00D2A0FDAA6
:1008A000206BD61F06EB86071F2606FA07F1884342
:1008B000D61F06EB860605FA06F10843206310E012
:1008C000E06AA2F10D0606EB86071F2606FA07F17D
:1008D0008843A2F10D0606EB860605FA06F10843E9
:1008E000E062F0BD816841F008018160704721B18C
:1008F000826842F4A002826003E0826822F4A002CF
:1009000082607047816841F0040181607047000097
:1009100000B587B001214FF4027001F04FFC4FF495
:10092000004001F02FFC2220ADF8040000208DF8DB
:10093000070001A9174800F0CBF91748FFF7FEFEA2
:10094000002002908DF80C008DF80D004FF460200F
:1009500004900020059001208DF8180002A90E488F
:10096000FFF73CFF01210C48FFF7DCFE0A48FFF7C8
:10097000B9FF00BF0848FFF726FF0028FAD1064854
:10098000FFF7C0FF00BF0448FFF706FF0028FAD1B9
:1009900007B000BD000801400024014000BFFEE791
:1009A00010B5044801780448FFF7D5FB0020014941
:1009B000087010BD470800206408002008B5012118
:1009C0001C2001F0FBFB4FF48070ADF800001020FC
:1009D0008DF8030003208DF802006946174800F0E7
:1009E00077F94FF48071154800F006FA4FF4407023
:1009F000ADF8000010208DF8030003208DF80200F0
:100A000069460F4800F064F94FF440710C4800F05B
:100A1000F3F94FF48040ADF8000010208DF803008A
:100A200003208DF802006946064800F051F94FF4A2
:100A30008041044800F0E0F908BD000000080140D2
:100A4000000C01400010014010B50121042001F00C
:100A5000B5FB10BD38B504464CB14020ADF80000E0
:100A600003208DF8020010208DF8030005E04020DF
:100A7000ADF8000004208DF803006946014800F03D
:100A800027F938BD0008014070B50025002400BFDB
:100A90003BE00020FFF7DEFF07E01E480078401C27
:100AA0001C490870012002F027FC40211A4800F080
:100AB0009AF918B9174800786428EEDB0020154928
:100AC00008706006040E282002F016FC402112482F
:100AD00000F089F9012801D144F0010407E00D4834
:100AE0000078401C0B490870012002F005FC4021F1
:100AF000094800F078F9012803D1064800786428F5
:100B0000EDDB0020034908706D1C082DC1DB204679
:100B100070BD00003F080020000801407CB505467C
:100B20000E46002000900190002400F071F800F0C3
:100B30003BF800BF04E0FFF7A7FF0DF80400641CBA
:100B4000052CF8DB012002F0BBFB9DF800009DF8AE
:100B5000011008449DF8021008449DF80310084451
:100B60009DF8041088420BD19DF8020028709DF872
:100B7000000030703278297806A001F005FF07E008
:100B8000002403E000200DF80400641C052CF9DBB0
:100B90007CBD0000CEC2B6C83D25642CCAAAB6C82A
:100BA0003D25640D0A00000010B50020FFF752FF3C
:100BB00007E015480078401C13490870012002F036
:100BC0009BFB4021114800F00EF918B90E4800783F
:100BD0006428EEDB00200C49087007E00A48007822
:100BE000401C09490870012002F086FB402107489B
:100BF00000F0F9F8012803D1034800786428EDDB00
:100C000000200149087010BD3F0800200008014085
:100C100010B50120FFF71EFF4021074800F0ECF857
:100C2000122002F04DFB4021034800F0E7F8282095
:100C300002F062FB10BD000000080140704700BFD9
:100C400000BF00BF00BF00BF00BF00BF00BF00BFAC
:100C500000BF00BF00BF00BF00BF00BF00BF00BF9C
:100C600000BF00BF00BF00BF00BF00BF00BF00BF8C
:100C700000BF00BF00BF00BF00BF00BF00BF00BF7C
:100C800000BF00BF00BF00BF00BF00BF00BF00BF6C
:100C900000BF00BF00BF00BF00BF00BF00BF00BF5C
:100CA00000BF00BF00BF00BF00BF00BF00BF00BF4C
:100CB00000BF00BF00BF00BF00BF00BF00BF00BF3C
:100CC00000BF00BF00BF00BF00BF00BF00BF704734
:100CD0002DE9F041024600250026002000230024D3
:100CE000002791F803C00CF00F0591F803C00CF039
:100CF000100CBCF1000F03D091F802C04CEA0505BE
:100D000091F800C0BCF1000F31D0146800202BE036
:100D10004FF0010C0CFA00F3B1F800C00CEA030626
:100D20009E4220D183004FF00F0C0CFA03F7BC4316
:100D300005FA03FC4CEA040491F803C0BCF1280F47
:100D400006D14FF0010C0CFA00FCC2F814C00AE006
:100D500091F803C0BCF1480F05D14FF0010C0CFA1B
:100D600000FCC2F810C0401C0828D1D31460B1F8B0
:100D700000C0BCF1FF0F34DD546800202EE000F10C
:100D8000080C4FF0010808FA0CF3B1F800C00CEAA7
:100D900003069E4221D183004FF00F0C0CFA03F79B
:100DA000BC4305FA03FC4CEA040491F803C0BCF10F
:100DB000280F05D100F1080C08FA0CF8C2F81480CD
:100DC00091F803C0BCF1480F07D100F1080C4FF0B7
:100DD000010808FA0CF8C2F81080401C0828CED38D
:100DE0005460BDE8F0810246002093680B400BB1CF
:100DF000012000E0002070474161704701617047A9
:100E000010B504460723012221460948FFF70EFDCD
:100E100001210748FFF76BFD00BF02210448FFF7DF
:100E2000C9FC0028F9D00248FFF7C0FC10BD000043
:100E3000002401402DE9F04107460C46002500261C
:100E400008E03846FFF7DCFF0544052002F038FAD9
:100E5000701CC6B2A642F4DBB5FBF4F080B2BDE86C
:100E6000F081000010B517480078012829D1002032
:100E70001449087014480078134949780844124905
:100E8000897808441049C97808440F490979084409
:100E9000C4B20D484079A0420ED10B488178407809
:100EA00001EB002009498860FFF77AFD0748816857
:100EB00007A001F069FD04E007A001F065FDFFF760
:100EC0006FFD10BD4808002064080020C8080020FD
:100ED000434F323D256400006B716D32383030D0A5
:100EE000A3D1E9CAA7B0DC0D0A0000002DE9F04744
:100EF000824602210120FFF79DFF40F6FF71081A8C
:100F0000AAF80000BAF800100CA001F03DFDBAF8F4
:100F10000000FFF70CFA06464FF066320D4BFFF764
:100F200025F9044600220C4BFFF792F98046424611
:100F30000B460AA001F028FDBDE8F0874144435F5D
:100F40004C494748545F56616C75653D25640D0AF0
:100F50000000000066660A400000B040B9E2D5D546
:100F6000B5E7D1B93D252E32660D0A0070B50446AD
:100F700002210520FFF75EFF642100FB01F5E81761
:100F800005EB105000132080218802A001F0FCFC2A
:100F900070BD00004144435F534F494C5F56616C44
:100FA00075653D25640D0A0000BFFEE710B5802180
:100FB0000A48FFF723FF40210848FFF71FFF00F012
:100FC00037F880210548FFF717FF00F031F840217E
:100FD0000248FFF711FF00F02BF810BD000C014094
:100FE00010B580210648FFF707FF40210448FFF7AE
:100FF00005FF00F01DF880210148FFF7FFFE10BD3E
:10100000000C014010B580210848FFF7F7FE00F002
:101010000FF840210548FFF7F1FE00F009F84021E4
:101020000248FFF7E9FE00F003F810BD000C014094
:10103000032000BF011EA0F10102D0B2FAD1704717
:1010400008B50121082001F0B9F84FF47040ADF85F
:10105000000048208DF8030069460248FFF738FE7B
:1010600008BD0000000C014010B5044614B1012079
:10107000304908702F48007800283DD04FF40051C7
:101080002D48FFF7B0FE88B14FF400412A48FFF722
:10109000AAFE58B14FF480412748FFF7A4FE28B1BB
:1010A0004FF480512448FFF79EFE28BB052002F034
:1010B00007F900201F4908704FF400411E48FFF750
:1010C00092FE08B9012010BD4FF480411A48FFF785
:1010D0008AFE08B90220F6E74FF400511648FFF7E0
:1010E00082FE08B90320EEE74FF480511248FFF763
:1010F0007AFEE0B90420E6E74FF400410E48FFF71E
:1011000072FE012813D181030B48FFF76CFE012802
:101110000DD141030848FFF766FE012807D10103FE
:101120000548FFF760FE012801D102490870002040
:10113000C9E7000046080020000C014010B500205F
:10114000FFF792FFBC49087008460078012806D0D6
:1011500002287BD0032874D0042873D146E1B74815
:101160000078012807D10220B449087000F0ACF9DA
:1011700000F082FE69E0B1480078022815D1B0483D
:101180000078401CAE49087008460078052809DD43
:10119000002008700320A949087000F095F900F0BC
:1011A00065FF52E000F068FE4FE0A4480078032895
:1011B00015D1A3480078401CA14908700846007862
:1011C000012809DD0020087004209C49087000F007
:1011D0007BF900F09FFD38E000F048FF35E09748CC
:1011E0000078042815D196480078401C944908706E
:1011F00008460078032809DD0020087001208F4987
:10120000087000F061F900F00FFC1EE000F082FDB4
:101210001BE08A480078052817D189480078401CCF
:10122000874908700846007802280CDD0020087005
:1012300001208249087000F047F900F0F5FB04E056
:1012400004E06BE0F5E000F0FFFCF2E07B480078A2
:10125000012802D17B4908705FE0784800780228B5
:1012600027D177480078012805D176484068401C8E
:101270007449486051E072480078022805D17148ED
:101280008068401C6F49886047E06D4800780328FB
:1012900005D16C48006919306A4908613DE0684829
:1012A0000078042839D16748C068401C6549C86087
:1012B00033E062480078032809D1614800780128AA
:1012C0002BD1604840690F305E49486125E05B489A
:1012D0000078042821D15B480078F0B9584800789C
:1012E000012806D10020584908600120554948705E
:1012F00013E053480078022805D1012053490860C3
:101300005049887009E04E480078032805D1012033
:101310004E49091D08604B49C8708AE0474800786B
:10132000012803D10020474908705EE04348007857
:10133000022827D142480078012805D14148406859
:10134000401E4049486050E03D480078022805D1E1
:101350003C488068401E3B49886046E03848007839
:10136000032805D1374800691938364908613CE03F
:1013700033480078042838D13248C068401E3149CB
:10138000C86032E02D480078032809D12C48007845
:1013900001282AD12B4840690F382A49486124E0A6
:1013A00026480078042820D126480078E8B9244847
:1013B0000078012805D1244908600020214948709F
:1013C00013E01F480078022805D100201F4908605B
:1013D0001C49887009E01A480078032805D10020CC
:1013E0001A49091D08601749C87022E0134800789F
:1013F00005280AD0052011490870002010490870FE
:1014000000F062F800F020FC12E00C48007805289B
:101410000ED10B480078012803D1022003F086FF8B
:1014200006E007480078022802D1012003F07EFF81
:1014300000BF00BF10BD00003C0800203D08002098
:101440003E080020540D0020B8012242A081214214
:1014500000BFFEE77047000070B5002100230F2297
:10146000C47804B3154C246804F4E064C4F5E06463
:10147000210AC1F10403CA40447804FA03F18478D4
:101480001440214309010E4C0678A155047804F05C
:101490001F050124AC4005786D11AD0005F1E02574
:1014A000C5F8004109E0047804F01F050124AC40B0
:1014B000044D0678761145F8264070BD0CED00E02D
:1014C00000E400E080E100E070B500240CE00025BD
:1014D00006E00020074901EBC5010855681CC5B2AC
:1014E000802DF6DB601CC4B2082CF0DB00F0DCF8C9
:1014F00070BD0000D4080020F0B514460B46CF178D
:1015000001EB5777C7F3C702CF1701EB5777FF10EF
:10151000A1EBC707FEB20123B340DDB24CB1134BC0
:1015200003EBC0039B5C2B43104F07EBC007BB547E
:101530001AE00E4B03EBC0039B5CDB430B4F07EB46
:10154000C007BB54094B03EBC0039B5C2B43074F05
:1015500007EBC007BB54054B03EBC0039B5CDB43AD
:10156000024F07EBC007BB54F0BD0000D4080020B9
:1015700008B50121082000F021FEC020ADF80000D0
:1015800014208DF8030003208DF8020069463E48C0
:10159000FFF79EFBC0213C48FFF730FC04213B488D
:1015A000FFF72AFCC82001F08BFE04213748FFF723
:1015B00025FC0021AE2000F0C7FD0021084600F008
:1015C000C3FD0021102000F0BFFD0021402000F0ED
:1015D000BBFD0021812000F0B7FD0021CF2000F0ED
:1015E000B3FD0021A12000F0AFFD0021C82000F0D4
:1015F000ABFD0021A62000F0A7FD0021A82000F0EF
:10160000A3FD00213F2000F09FFD0021D32000F02A
:101610009BFD0021084600F097FD0021D52000F039
:1016200093FD0021802000F08FFD0021D92000F0E3
:101630008BFD0021F12000F087FD0021DA2000F071
:1016400083FD0021122000F07FFD0021DB2000F04F
:101650007BFD0021302000F077FD0021202000F0EC
:1016600073FD0021022000F06FFD00218D2000F0AD
:101670006BFD0021142000F067FDFFF725FF00211E
:10168000AF2000F061FD08BD000C014000080140E2
:1016900010B50246012000E050430B1EA1F10104E9
:1016A000E1B2F9D110BD000070B500242BE004F1C7
:1016B000B001C8B2002100F047FD0021084600F04B
:1016C00043FD0021102000F03FFDFFF76FFC782064
:1016D00000F000FEFFF796FC402000F0FBFDFFF756
:1016E00091FC002509E0094901EBC501085D00F006
:1016F000F1FDFFF787FC681CC5B2802DF3DBFFF717
:101700006FFC601CC4B2082CD1DB70BDD408002073
:101710002DE9FE4F0746884692461C460197CDF8B4
:101720000080082C02D14FF006091FE02046E31785
:1017300004EB5373DB1021464FEAE47C04EB5C7C42
:101740004FEAEC0CA4EBCC0CBCF1000F02D04FF034
:10175000010C01E04FF0000C6344224604EBD27C04
:101760004FEA6C0C03FB0CF303F0FF09AAF1200015
:10177000C6B200255EE0082C07D106EB46002F49D3
:1017800001EB400010F805B01DE00C2C07D106EB72
:1017900046002B4901EB800010F805B013E0102C37
:1017A00005D1284800EB061010F805B00BE0182C06
:1017B00007D106EBC600244901EB800010F805B004
:1017C00001E0BDE8FE8F002002901CE00BF001005C
:1017D00028B1414638460C9AFFF78EFE09E00C9876
:1017E00008B9012000E00020024641463846FFF7D4
:1017F00083FE4FEA6B0B08F1010000F0FF0802982E
:10180000401CC0B2029002980828DFDB781CC7B2E7
:10181000082C0BD004EBD4714A100199791A8A4232
:1018200004D1019F00980830C0B20090DDF800801C
:10183000681CC5B24D459EDB00BFC2E72C5B0008AB
:10184000545D0008C8610008B86700082DE9FC4F26
:101850000746884616461C46BB46CDF804802046FF
:10186000E21704EB5272D2102146E31704EB5373D4
:10187000DB10A4EBC3030BB1012300E000231A44E7
:10188000624392B20092002555E0102C05D12C48FD
:1018900000EB461010F805A01BE0182C07D106EB52
:1018A000C600284901EBC00010F805A011E0202C6B
:1018B00005D1254800EBC61010F805A009E0402C22
:1018C00005D1224800EB462010F805A001E0BDE854
:1018D000FC8F4FF000091CE00AF0010028B14146DE
:1018E00038460B9AFFF708FE09E00B9808B901206B
:1018F00000E00020024641463846FFF7FDFD4FEA72
:101900006A0A08F1010000F0FF0809F1010000F087
:10191000FF09B9F1080FDFDB781CC7B2A7EB0B009A
:10192000A04204D15F4601980830C0B20190DDF8B2
:101930000480681C85B200988542A6DB00BFC6E71C
:1019400014750008947B0008DC7B00085C7C0008B0
:101950002DE9FF4F82B0064691461F46DDE90F4A4A
:101960004FF0000B082C01D14FF0020B002530E0A6
:10197000781B401EC1B20A20FFF78AFEB9FBF0F0C7
:101980000A21B0FBF1F201FB1208B8F1000F0ED1F1
:1019900004EBD4710BEB610101FB0561C8B2234676
:1019A0003022CDE900A40399FFF7B2FE0FE004EB6B
:1019B000D4710BEB610101FB0561C8B208F1300184
:1019C000CAB22346CDE900A40399FFF7A1FE681C23
:1019D000C5B2BD42CCDB06B0BDE8F08F2DE9F841C1
:1019E00006460F4614461D46DDF81C8013E0CDF870
:1019F000008022782B4639463046FFF789FE082DB5
:101A000002D1B01DC6B205E0284605EBD07106EB49
:101A10006101CEB2641C2078202802DB20787E2869
:101A2000E5DDBDE8F88100001CB50120102305228A
:101A3000002100900846FFF709FF0120102308222B
:101A4000002100901846FFF701FF012010233A22E1
:101A5000002100902020FFF75BFE012010210223CF
:101A6000CDE900107148027800212820FFF770FFAF
:101A7000012010230622002100904020FFF7E6FEFF
:101A8000012010230822002100905020FFF7DEFEE5
:101A9000012010233A22002100906020FFF738FE39
:101AA000012010210223CDE90010614802780021B5
:101AB0006820FFF74DFF012010235EA21946009019
:101AC0000020FFF78BFF012010230722194600900A
:101AD0001820FFF7BBFE01201023082219460090B2
:101AE0002820FFF7B3FE012010233A221946009068
:101AF0003820FFF70DFE01201021CDE900104E48DF
:101B0000042382684020FFF723FF012010230922CD
:101B1000202100900020FFF799FE012010230A22C7
:101B2000202100901846FFF791FE012010230B2280
:101B3000202100900846FFF789FE0120102308228B
:101B4000202100903020FFF781FE012010233A224F
:101B5000202100904020FFF7DBFD0120102104230D
:101B6000CDE900103548028820214820FFF7F0FE1B
:101B7000012010231222302100900020FFF766FE82
:101B8000012010231322302100901846FFF75EFE3B
:101B9000012010230622302100902020FFF756FE5E
:101BA000012010230822302100900846FFF74EFE46
:101BB000012010233A22302100904020FFF7A8FD99
:101BC000012010210323CDE900101D480288302197
:101BD0004820FFF7BDFE1B48007801280FD11023D5
:101BE0002322202100907020FFF730FE01201023D7
:101BF0002522302100907020FFF728FE12E01148C6
:101C0000007878B901201023242220210090702030
:101C1000FFF71CFE012010232522302100907020A8
:101C2000FFF714FEFFF740FD1CBD00004008002038
:101C300041080020434F3200C8080020420800201D
:101C400044080020540D0020F8B5314800780128E0
:101C500004D100240125012601271EE02C4800782C
:101C6000022804D1012400250126012715E0284877
:101C70000078032804D101240125002601270CE067
:101C800023480078042804D10124012501260027D7
:101C900003E0012401250126012710232E22002123
:101CA00008460094FFF7D2FD10232F22002118468A
:101CB0000094FFF7CBFD1023322200212020009456
:101CC000FFF7C4FD10233322002130200094FFF7DA
:101CD000BDFD10233022194600200095FFF7B6FD08
:101CE00010233122194618460095FFF7AFFD102347
:101CF0003222194620200095FFF7A8FD1023332239
:101D0000194630200095FFF7A1FDFFF7CDFCF8BD87
:101D10003E080020F8B556480078012804D1002478
:101D20000125012601271EE051480078022804D130
:101D3000012400250126012715E04D4800780328DD
:101D400004D101240125002601270CE04848007831
:101D5000042804D1012401250126002703E00124E1
:101D600001250126012701201023262200210090B1
:101D70000846FFF76BFD0120102327220021009069
:101D80001846FFF763FD012010233A22002100903E
:101D90002020FFF7BDFC37484078012807D11023E9
:101DA0002C22002128200094FFF750FD06E010238C
:101DB0002D22002128200094FFF748FD0120102348
:101DC0002822194600900020FFF740FD0120102333
:101DD0002922194600901846FFF738FD01201023EC
:101DE0003A22194600902020FFF792FC2148807883
:101DF000012807D110232C22194628200095FFF72F
:101E000025FD06E010232D22194628200095FFF716
:101E10001DFD012010232A22202100900020FFF721
:101E200015FD012010232B22202100901846FFF7DA
:101E30000DFD012010233A22202100900846FFF7D3
:101E400067FC0C48C078012807D110232C222021E0
:101E500028200096FFF7FAFC06E010232D2220210F
:101E600028200096FFF7F2FCFFF71EFCF8BD0000EB
:101E70003E080020540D00202DE9FC4179480078EF
:101E8000012804D100240125012601271EE0754800
:101E90000078022804D1012400250126012715E03D
:101EA00070480078032804D1012401250026012769
:101EB0000CE06C480078042804D101240125012697
:101EC000002703E00124012501260127012010231A
:101ED0000522002100900846FFF7B8FC01201023DE
:101EE0000822002100901846FFF7B0FC01201023C3
:101EF0001D22002100902020FFF7A8FC01201023C4
:101F00001E22002100903020FFF7A0FC01201023AA
:101F10003A22002100904020FFF7FAFB1020CDE983
:101F2000000451484268032300214820FFF710FDB8
:101F3000012010230622194600900020FFF786FC9E
:101F4000012010230822194600901846FFF77EFC56
:101F5000012010231D22194600902020FFF776FC57
:101F6000012010231E22194600903020FFF76EFC3E
:101F7000012010233A22194600904020FFF7C8FBA9
:101F80001020CDE90005384882680323102148203D
:101F9000FFF7DEFC01201023092220210090002001
:101FA000FFF754FC012010230A222021009018463C
:101FB000FFF74CFC012010231D2220210090084631
:101FC000FFF744FC012010231E2220210090302026
:101FD000FFF73CFC012010233A22202100904020F2
:101FE000FFF796FB1020CDE900061F480269042385
:101FF00020214820FFF7ACFC0120102312223021C1
:1020000000900020FFF722FC012010231322302132
:1020100000901846FFF71AFC012010231D223021E2
:1020200000902020FFF712FC012010231E223021F7
:1020300000900846FFF70AFC012010233A223021C5
:1020400000904020FFF764FB1020CDE90007064810
:10205000C268032330214820FFF77AFCFFF724FBF6
:10206000BDE8FC813E080020540D00202DE9FC4114
:1020700032480078012804D10024012501260127D7
:102080001EE02E480078022804D1012400250126F4
:10209000012715E029480078032804D101240125EF
:1020A000002601270CE025480078042804D10124EB
:1020B00001250126002703E001240125012601272F
:1020C000012010231EA2002100900846FFF786FC85
:1020D000012010230722002100901820FFF7B6FBF3
:1020E000012010230822002100902820FFF7AEFBDA
:1020F000012010231D22002100903820FFF7A6FBAD
:10210000012010231E22002100904820FFF79EFB93
:10211000012010233A22002100905820FFF7F8FAFE
:102120001020CDE900040748426904230021602003
:10213000FFF70EFCFFF7B8FABDE8FC813E0800206F
:10214000434F3200540D002070B505460C46FEF793
:102150002DFF782000F0BEF8FEF754FF1CB14020A0
:1021600000F0B8F802E0002000F0B4F8FEF74AFFF3
:10217000284600F0AFF8FEF745FFFEF731FF70BDCF
:102180007047000001460020034A506820F4404098
:1021900008435060704700000010024029B1064A11
:1021A000D2690243044BDA6104E0034AD2698243F4
:1021B000014BDA61704700000010024029B1064A65
:1021C00092690243044B9A6104E0034A9269824394
:1021D000014B9A61704700000010024029B1064A85
:1021E000D2680243044BDA6004E0034AD2688243B7
:1021F000014BDA60704700000010024030B500214A
:102200000022002400232D4D6D6805F00C0121B142
:10221000042905D0082923D105E0294D056022E0D5
:10222000274D05601FE0254D6D6805F47012234DA4
:102230006D6805F48034022505EB92421CB9214DEE
:10224000554305600BE01D4D6D6805F400351DB16B
:102250001C4D5543056002E0194D5543056002E0F1
:10226000174D056000BF00BF144D6D6805F0F0010B
:102270000909154D6B5C0568DD4045600F4D6D68C3
:1022800005F4E061090A104D6B5C4568DD4085602E
:102290000A4D6D6805F46051C90A0B4D6B5C4568C9
:1022A000DD40C560054D6D6805F44041890B074D63
:1022B0006B5CC568B5FBF3F5056130BD00100240ED
:1022C00000127A0000093D000000002010000020EC
:1022D0007047000070B5044600251BE004F0800044
:1022E00020B180210D48FEF789FD03E080210B48D5
:1022F000FEF782FDFEF79CFE40210848FEF77EFDBA
:10230000FEF796FE40210548FEF776FD6006040EB6
:10231000681CC5B2082DE1DB70BD0000000C014057
:1023200028480078012849D12648006926490988AB
:10233000884206D9002025490860012021494870BB
:1023400005E001202149086000201E4948701D4811
:1023500040681F49097888420BD31A4880681D4994
:102360000978884205D31C48806816494969884223
:1023700008D9012019490860124988701849C1F824
:10238000A00107E00020154908600E498870144933
:10239000C1F8A0010B48C06812490988884206D9D3
:1023A00001200E49091D08600649C87009E0002097
:1023B0000A49091D08600349C87002E000200A4963
:1023C00008607047540D002042080020B8012242E6
:1023D0004008002041080020C8080020A0812142B8
:1023E0000000214244080020A001214210B500F065
:1023F00001F810BD0CB50020019000903348006832
:1024000040F480303149086000BF3048006800F473
:10241000003000900198401C0190009818B9019874
:10242000B0F5A06FF1D12948006800F4003010B178
:102430000120009001E0002000900098012843D185
:102440002348006840F010002149086008460068F1
:1024500020F0030008600846006840F002000860B1
:102460001A4840681949486008464068486008466C
:10247000406840F4806048600846406820F47C1062
:1024800048600846406840F4E81048600846006824
:1024900040F08070086000BF0C48006800F00070D9
:1024A0000028F9D00948406820F003000749486037
:1024B0000846406840F00200486000BF034840689A
:1024C00000F00C000828F9D10CBD000000100240FB
:1024D00000200240042808D14FF0E021096941F0B2
:1024E00004014FF0E022116107E04FF0E02109699B
:1024F00021F004014FF0E0221161704770470000A5
:1025000010B51348006840F0010011490860084602
:102510004068104908400E494860084600680E4966
:1025200008400B4908600846006820F480200860D5
:102530000846406820F4FE0048604FF41F008860A1
:10254000FFF754FF4FF000600449086010BD000021
:10255000001002400000FFF8FFFFF6FE08ED00E06B
:1025600010B501210A4800F052F801280ED102F0FE
:102570007BFB08480088401C0649088008464088C4
:10258000401C48800121024800F032F810BD0000D4
:10259000000400404A0800201FB501210220FFF777
:1025A000FDFD40F2E730ADF804004720ADF8000033
:1025B00069460E4800F046F8012211460B4800F02B
:1025C00037F81D208DF80C0001208DF80F000A202F
:1025D0008DF80D0000208DF80E0003A8FEF73CFFDB
:1025E0000121024800F007F81FBD00000004004070
:1025F000CA430282704721B1028842F00102028080
:1026000004E002884FF6FE731A400280704730B52E
:102610000246002000230024158A05EA010395895B
:1026200005EA010413B10CB1012000E0002030BD27
:102630001AB183890B43838102E083898B438381B1
:1026400070470000002202881D4B98420ED01D4B9F
:1026500098420BD0B0F1804F08D01B4B984205D068
:102660001A4B984202D01A4B984204D14FF68F73FE
:102670001A404B881A43174B984207D0164B984282
:1026800004D04FF6FF431A40CB881A4302808B8850
:1026900083850B8803850A4B98420BD0094B9842DF
:1026A00008D00E4B984205D00D4B984202D00D4BEE
:1026B000984201D10B7A0386012383827047000080
:1026C000002C01400034014000040040000800409C
:1026D000000C004000100040001400400040014089
:1026E000004401400048014010B5044600BF4021AD
:1026F000044800F074F80128F9D12146014800F09F
:102700003CF910BD0038014070B5002540F225515C
:10271000174800F071F8012817D1154800F028F982
:10272000C4B2144801780078401C124A1070124854
:10273000445410460078322802DB0020114608700D
:1027400040F225510A4800F02FF840F22441084891
:1027500000F052F801280AD10849087010210448F5
:1027600000F03DF80446024800F002F9C4B270BD22
:10277000004400404708002064080020480800206A
:1027800008B540F22551074800F036F840B1054839
:1027900000F0EEF8C0B200900121684602F01EF988
:1027A00008BD00000048004010B50022002340F69C
:1027B0006A14A14200D100BF0A1201249440A3B2BE
:1027C000DC43048010BD21B1828942F40052828131
:1027D00004E082894DF6FF731A40828170470246F9
:1027E0000020B1F5007F00D100BF13880B400BB172
:1027F000012000E00020704770B50246002400234D
:102800000025002040F66A16B14200D100BFC1F396
:10281000421501F01F03012606FA03F3012D02D130
:102820009689334006E0022D02D1168A334001E03A
:10283000968A33400C12012606FA04F416883440B6
:1028400013B10CB1012000E0002070BDF0B50346CB
:10285000002400260025002040F66A17B94200D166
:1028600000BF1846C1F3421401F01F06012707FA02
:1028700006F5012C01D10C3004E0022C01D11030FE
:1028800000E014301AB107682F43076002E00768C0
:10289000AF430760F0BD00002DE9F04786B0054664
:1028A0000E460024A24600BFA1460027B08900B111
:1028B00000BF2F462C8A4CF6FF700440F08804437A
:1028C0002C82AC894EF6F3100440B088318908435D
:1028D000718908430443AC81AC8A4FF6FF40044041
:1028E000B0890443AC8201A8FFF788FC1F488742E7
:1028F00002D1DDF810A001E0DDF80CA0A88900F4F9
:10290000004040B10AEBCA0000EB0A1031684900F0
:10291000B0FBF1F807E00AEBCA0000EB0A103168DF
:102920008900B0FBF1F86420B8FBF0F00401200945
:10293000642101FB1089A88900F4004040B13220D5
:1029400000EBC900B0FBF1F000F00700044308E021
:10295000322000EB09106421B0FBF1F000F00F0011
:1029600004432C8106B0BDE8F08700000038014028
:1029700001468888C0F308007047C1F308028280CE
:10298000704700BFFEE700000FB4054B10B503A968
:10299000044A029800F0DAF810BC5DF814FB00005D
:1029A000553300082400002002E008C8121F08C1A7
:1029B000002AFAD170477047002001E001C1121FC0
:1029C000002AFBD1704700002DE9FF5F82B0002193
:1029D000DDE90430020DDDF840B0034318D044F6C1
:1029E0001050A2F2FF3242431514119801281FD053
:1029F000A5EB0B00401C5FEA000A4FF000064E4FAB
:102A0000DFF83891B046504615D5CAF1000413E0FE
:102A1000119801244AA3012801D16FEA0B01029801
:102A2000119AC0E90031C0E9024206B0BDE8F09F4A
:102A3000CBF10000DFE704460021404A491842EB91
:102A40000450CDE9001012E0E00707D032463B46C3
:102A500040464946FDF78AFB8046894632463B465A
:102A600010461946FDF782FB06460F466410002CFF
:102A7000EAD1DDE90401DDE90023BAF1000F06DA4D
:102A8000FDF774FB42464B46FDF770FB05E0FDF792
:102A9000DFFB42464B46FDF7DBFB04460E460022B9
:102AA000284BFDF7B5FD03D84FF0FF30014607E096
:102AB0000022254B20463146FDF7EAFCFDF78FFD4D
:102AC000102409E0002C0ADB0A220023FDF752FC47
:102AD000039B30321A55641E50EA0102F2D1641C85
:102AE000039AC4F111031444119A012A03D001225C
:102AF00008430DD10AE0084304D000204FF0110B29
:102B0000119072E7A3EB0B056D1E0DE05B4504DD34
:102B10004FF0000205F1010504E003DA4FF0000276
:102B2000A5F10105002AECD002981199C0E9023103
:102B3000C0E9004579E70000000014400000F03FC4
:102B4000300000000000F0430000E03F2DE9FF4F9F
:102B500095B09B468946064600250FE2252877D189
:102B600000242746F84A0121059400E0044316F8A2
:102B7000013F203B01FA03F01042F7D130782A28B8
:102B800011D06FF02F033078A0F13002092A16D847
:102B9000059A44F0020402EB820203EB4202104465
:102BA000761C0590EFE759F8042B0592002A03DA0A
:102BB000504244F40054059044F00204761C3078EE
:102BC0002E2816D116F8010F44F004042A280DD03F
:102BD0006FF02F023078A0F13003092B09D807EBF2
:102BE000870302EB4303C718761CF3E759F8047B0D
:102BF000761C30786C280FD006DC4C2817D068285B
:102C00000DD06A2814D104E0742810D07A280FD18E
:102C10000DE044F400140AE044F4801401E044F4AC
:102C200040147278824202D104F58014761C761C1E
:102C3000307866280BD013DC582877D009DC0028C0
:102C400075D04528F6D04628F4D047281AD19DE102
:102C500018E0632835D0642879D0652812D195E131
:102C6000702873D008DC6728F1D069286FD06E28EF
:102C70000DD06F2806D1B5E073282CD0752875D0FB
:102C8000782874D05A46179990476D1C75E1C4F3A3
:102C90000250022809D003280DD0D9F800100428CA
:102CA0000DD00D6009F1040967E1D9F80010EA17A9
:102CB000C1E90052F6E7D9F800100D80F2E70D7077
:102CC000F0E719F8041B8DF8001000208DF80100C2
:102CD000EA46012003E059F804AB4FF0FF306107EA
:102CE0004FF0000102D40DE008F101018846B9421D
:102CF0000FDA8045F8DB1AF808100029F4D108E053
:102D000008F1010188468142FADB1AF8081000290F
:102D1000F6D105985B46A0EB080721463846179A7E
:102D200000F094FA284400EB080507E04DE029E1A3
:102D30000DE01AF8010B5A4617999047B8F10108AF
:102D4000F7D25B4621463846179A13E142E00A2241
:102D50000092C4F302524FF0000A022A08D059F838
:102D600004CB032A4FEAEC710AD00DE029E02AE0F7
:102D700009F1070121F00702F2E802C1914609E0DA
:102D80000FFA8CFC4FEAEC71042A03D14FFA8CFC49
:102D90004FEAEC71002907DA0A460021DCF1000C49
:102DA00061EB02012D2202E0220504D52B228DF8D1
:102DB0000420012203E0E20701D02022F7E7904639
:102DC00059E00A2102E010220DE010214FF0000A24
:102DD00000910BE010224FF0000A44F00404082791
:102DE000009203E008224FF0000A0092C4F302525E
:102DF000022A05D059F804CB0021032A08D009E0A3
:102E000009F1070121F00702F2E802C1914605E04D
:102E10001FFA8CFC042A01D10CF0FF0C4FF00008C3
:102E2000220728D5702806D0009B83F0100353EAB0
:102E30000A0305D00EE040228DF80420012208E0AC
:102E40005CEA010206D030228DF804208DF80500DE
:102E500002229046009B83F0080353EA0A030AD13A
:102E60005CEA010201D1620705D530228DF8042009
:102E70004FF001087F1E582804D034A003900EA8FC
:102E800002900DE036A0F9E753466046009AFDF740
:102E900071FA84460398825C0298401E0290027088
:102EA0005CEA0100F0D1029806A9081A00F1200A94
:102EB000600702D524F4803400E00127574502DD85
:102EC000A7EB0A0000E0002000EB0A010090059843
:102ED0004144401A0590E00306D45B462146179A08
:102EE000059800F0B3F90544002706E001A85A460A
:102EF000C05D179990476D1C7F1C4745F6DBE003CA
:102F00000CD55B462146179A059800F09FF90544B9
:102F100004E030205A46179990476D1C0099481ECE
:102F200000900029F5DC08E0029802995A460078E2
:102F3000491C0291179990476D1CBAF10001AAF142
:102F4000010AF1DC65E1000009280100303132336B
:102F500034353637383961626364656600000000D5
:102F600030313233343536373839414243444546BF
:102F70000000000000F058F90544761C3078002865
:102F80007FF4ECAD19B02846BDE8F08F620700D49D
:102F9000062709F1070222F0070CFCE80223E146AC
:102FA00003F000485FEA080C02D00FF2702C0DE02D
:102FB0005FEA045C02D50FF2682C07E05FEAC47C8C
:102FC00002D00FF2602C01E0AFF2700C4FF0FF382E
:102FD00023F00043CDF850C065280CD006DC45280E
:102FE00009D046281DD047283DD13DE0662818D09D
:102FF00067287ED138E00021112F01DB112000E08D
:10300000781CCDE9000106A90EA8FFF7DDFCDDE97B
:103010000F010E9A03910021009207F1010A049119
:103020004DE04FF000400097CDE9011006A90EA831
:10303000FFF7CAFCDDE90F0203920E9B11990022F3
:10304000DDF80CA00093049211B9791C00EB010A81
:10305000B7EB0A0004D4C0F1FF3007F1010A049075
:10306000AAEB0700019044E0012F00DA01270021BC
:10307000112F01DD112000E03846CDE9000106A93D
:103080000EA8FFF7A1FCDDE90F010E9A03910021C4
:1030900004910092BA4621070CD40399514500DAF5
:1030A0008A46BAF1010F05DD009AAAF10101515CCF
:1030B000302908D0B84202DA10F1040F06DA0121F3
:1030C000CDE9011015E0AAF10101E9E7002805DCCE
:1030D000049901440491AAEB000102E0411C51450E
:1030E00000DD8A460499401A401C01904FF00040D0
:1030F0000290200704D40198504501DBCDF80480EC
:1031000000208DF84F0002980DF14F07B0F1004FED
:1031100025D02B200E9002984FF0020800280CDAE0
:10312000404202902D200E9007E00A210298FDF700
:103130000BF93031029007F8011DB8F10001A8F138
:103140000108F2DC02980028EFD1791E0E98087071
:10315000307800F0200040F0450007F8020D12A87A
:10316000C01B00F107081498007800B1012000EBA3
:103170000A01019801EBE07105984144401A401E94
:103180000590E00306D45B462146179A059800F0A7
:103190005DF805441498007818B15A46179990477D
:1031A0006D1CE00324D55B462146179A059800F074
:1031B0004DF805441CE00498002807DBDDE9030115
:1031C000884203DD0098405C179901E01799302090
:1031D0005A469047049805F10105401C0490019857
:1031E000401E019004D12E205A46179990476D1C1D
:1031F000BAF10001AAF1010ADDDC05E017F8010BC4
:103200005A46179990476D1CB8F10001A8F10108C2
:10321000F4DC5B462146179A0598ABE62D000000CA
:103220002B000000200000002DE9F041044600259D
:103230001E461746880404D405E039462020B047CE
:103240006D1C641EF9D52846BDE8F0812DE9F041DA
:10325000044600251E469046C80301D5302700E0ED
:103260002027880404D505E041463846B0476D1C48
:10327000641EF9D52846BDE8F081000010B56FF056
:103280000400FFF727F90A4800680A49B0FBF1F08B
:10329000094908700846007800EB4001C1EBC010F6
:1032A0004FF6FF7101EAC0000449088010BD00001C
:1032B0002800002000127A001400002016000020D0
:1032C00000B54FF47A714143094A11600021094A5F
:1032D000116006E0FDF7B3FC06490968491C054A80
:1032E000116004490968024A12689142F2D300BD94
:1032F000200000201C00002000B50021074A11809A
:1033000006E0FDF79CFC05490988491C034A118029
:10331000024909888142F4DB00BD0000180000204A
:1033200001B581B000200090694601AA507808706C
:1033300010784870BDF800000CBD0146080601F485
:103340007F4240EA022001F47F0240EA122040EA74
:103350001160704770B504460D46E0B2FFF7C4F93E
:10336000204670BD10B506490648FDF7D7FB064854
:10337000FDF7BCFD0548FDF7F9FDFDF773FD10BD38
:103380004108002040080020420800204408002096
:10339000024612B102F0070028B9082901D800201E
:1033A00070470120FCE702F00700C0F108008842E6
:1033B00001D30020F4E70120F2E730B502460B46C6
:1033C0000021002400250AB9481E30BD002108E074
:1033D000545C581A401E155C5554581A401E14541B
:1033E000491CB1EB530FF3D30020EEE72DE9F04178
:1033F00004460D460027002604B135B952A0FFF758
:10340000C3FA4FF0FF30BDE8F08100F043FB064601
:1034100028782178884203D055A0FFF7B5FA012714
:1034200068786178884203D057A0FFF7ADFA01278A
:10343000A878A178884203D058A0FFF7A5FA012701
:10344000E878E178884203D059A0FFF79DFA012778
:1034500068686168884203D05AA0FFF795FA01278F
:10346000A868A168884203D05CA0FFF78DFA012705
:10347000E868E168884203D05EA0FFF785FA01277B
:1034800028692169884203D060A0FFF77DFA0127EF
:1034900068696169884203D063A0FFF775FA012764
:1034A000A869A16988420AD065480068301A41F2CB
:1034B0007071884203D363A0FFF766FA0127E869B9
:1034C000E16988420AD05E480068301A41F27071A2
:1034D000884203D360A0FFF757FA0127286A216AC0
:1034E00088420AD056480068301A41F2707188420A
:1034F00003D35EA0FFF748FA0127686A616A884231
:103500000AD04F480068301A41F27071884203D3E4
:103510005BA0FFF739FA0127A86AA16A88420AD09E
:1035200047480068301A41F27071884203D359A0AD
:10353000FFF72AFA0127012F03D100F0ABFA404927
:10354000086038465FE7000067697A436865636B27
:103550005265706F7274204572726F72202C204910
:103560006C6C6567616C20506172616D0A000000CF
:1035700076616C75656175746F5F6D6F646520430E
:1035800068616E6765640A0076616C75656C656478
:10359000204368616E6765640A00000076616C759F
:1035A0006577696E64204368616E6765640A000030
:1035B00076616C75657761746572204368616E67CA
:1035C00065640A0076616C756574656D705F646F23
:1035D0006F72204368616E6765640A0076616C757E
:1035E0006568756D695F646F6F72204368616E67AF
:1035F00065640A0076616C7565736F696C5F646FF2
:103600006F72204368616E6765640A0076616C754D
:10361000656C696768745F646F6F72204368616E80
:103620006765640A0000000076616C7565636F323F
:103630005F646F6F72204368616E6765640A0000A3
:103640005408002076616C756574656D7020436860
:10365000616E6765640A000076616C756568756DFA
:1036600069204368616E6765640A000076616C7565
:1036700065736F696C204368616E6765640A00005A
:1036800076616C7565636F32204368616E6765644F
:103690000A00000076616C75656C69676874204388
:1036A00068616E6765640A00F8B505460C46164603
:1036B0000DB104B12EB969A0FFF766F94FF0FF30E4
:1036C000F8BD02212846FFF778FEB0F1FF3F05D193
:1036D0006DA0FFF759F94FF0FF30F1E7287800F0BF
:1036E000010098B111212278601C81542078401C7F
:1036F00020700120AB1C024600210090084601F01A
:1037000051FA08B1012000E0002030702878C0F3A1
:10371000400098B112212278601C81542078401C0E
:1037200020700120AB1C024601460090002001F0F1
:1037300039FA08B1012000E0002070702878C0F349
:10374000800098B113212278601C81542078401C9D
:1037500020700120AB1C024602210090002001F0E5
:1037600021FA08B1012000E00020B0702878C0F3F1
:10377000C00098B114212278601C81542078401C2C
:1037800020700120AB1C024603210090002001F0B4
:1037900009FA08B1012000E00020F0702878C0F399
:1037A000001060B115212278601C81542078401CE3
:1037B0002070EA780021012001F05EFA706028781C
:1037C000C0F3401060B116212278601C815420782B
:1037D000401C20702A790021012001F04DFAB060D0
:1037E0002878C0F3801060B117212278601C8154C2
:1037F0002078401C20706A790021012001F03CFAF9
:10380000F06028780121B1EBD01F10D11821227867
:10381000601C81542078401C2070E888FFF780FDF0
:1038200007463A460021012001F026FA3061687807
:1038300000F0010080B119212278601C81542078A9
:10384000401C20702889FFF76BFD07463A4600218F
:10385000012001F011FA7061002031E767697A44B4
:10386000617461506F696E74324576656E7420457F
:1038700072726F72202C20496C6C6567616C2050ED
:103880006172616D0A00000067697A427974654F60
:103890007264657245786368616E6765204572720F
:1038A0006F720A00F8B504460D4604B12DB93EA06A
:1038B000FFF76AF84FF0FF30F8BD0020287020783D
:1038C0002B46012200210090084601F02BF9607878
:1038D0002B46012211460090002001F023F9A07828
:1038E0002B46012202210090002001F01BF9E07814
:1038F0002B46012203210090002001F013F9012141
:103900002846FFF75AFD62680021012001F0BAF94C
:103910006870A2680021012001F0B4F9A870E26883
:103920000021012001F0AEF9E870A2690021012018
:1039300001F0A8F92872E2690021012001F0A2F942
:103940006872226A0021012001F09CF9A8722269A4
:103950000021012001F096F986B23046FFF7E0FC25
:10396000A88062690021012001F08CF986B23046FE
:10397000FFF7D6FCE880626A0021012001F082F99D
:1039800086B23046FFF7CCFCA5F80B00A26A0021F6
:10399000012001F077F986B23046FFF7C1FCA5F8A7
:1039A0000D00002088E7000067697A446174615067
:1039B0006F696E7473325265706F727444617461B2
:1039C000204572726F72202C20496C6C6567616CA7
:1039D00020506172616D0A0070B5054600F05AF81A
:1039E00004461D492846FFF701FD012813D11BA0FD
:1039F000FEF7CAFF18493B392846FFF753FF28B99D
:103A00000F2215493B39042001F022F82C222946C7
:103A10001148FCF787FB1748B4FBF0F100FB11409D
:103A2000C8B915480068A04215D014A0FEF7ACFF35
:103A300009493B392846FFF735FF28B90F220649C7
:103A40003B39042001F004F82C2229460248FCF7F7
:103A500069FB0948046070BD060F00206368616E51
:103A60006765642C207265706F7274206461746184
:103A70000A000000C027090058080020496E666F40
:103A80003A2036303053207265706F727420646152
:103A900074610A0001480068704700005008002067
:103AA00010B5174890F89500012827D1144890F8D0
:103AB000940002281DDAFFF7EDFF1149D1F8DB1061
:103AC000401AC8281AD9FFF7E5FF04460C4890F8B9
:103AD0009430D0F8DB2021460AA0FEF755FF00F015
:103AE000D5FE074890F89400401C054981F89400E1
:103AF00004E04B2102489430FCF72DFB10BD000080
:103B0000800D00205761726E696E673A67697A505E
:103B1000726F746F636F6C526573656E6444617429
:103B2000612025642025642025640A003EB50446F2
:103B3000002524B913A0FEF727FF681E3EBD2068AC
:103B40000090606801909DF80400401CC0B28DF8A0
:103B500004000520FFF7E4FBADF8020009216846E8
:103B600000F0D2FE8DF808000921684601F074FFCC
:103B70000546002D03DA29460DA0FEF705FF28466D
:103B8000DCE700004552523A2067697A50726F7440
:103B90006F636F6C436F6D6D6F6E41636B2064611B
:103BA000746120697320656D707479200A000000CB
:103BB0004552523A2075617274207772697465209B
:103BC0006572726F72202564200A0000FEB50446FB
:103BD0000E46002524B914A0FEF7D6FE681EFEBDD1
:103BE000684600F001FA12208DF8040060798DF823
:103BF00005000620FFF794FBADF802008DF8086081
:103C00000A21684600F080FE8DF809000A21684606
:103C100001F022FF0546002D03DA29460DA0FEF72C
:103C2000B3FE2846DBE7000067697A50726F746F55
:103C3000636F6C4572726F72436D64204572726F70
:103C400072202C20496C6C6567616C205061726138
:103C50006D0A00004552523A2075617274207772E5
:103C6000697465206572726F72202564200A0000F5
:103C700030B59DB0044600252CB92BA0FEF784FE7C
:103C8000681E1DB030BD684600F0AEF902208DF808
:103C9000040060798DF805002FA103C9CDE9020168
:103CA00030A103C9CDE9040131A103C9CDE908015F
:103CB00032A103C9CDE90601202233A10AA8FCF7ED
:103CC00031FA202239A10DF15200FCF72BFA002025
:103CD000CDF84A00CDF84E009DF851008DF8510006
:103CE0009DF8510040F002018DF851100020FFF7BF
:103CF00017FBADF848006F20FFF712FBADF802008C
:103D00007321684600F000FE8DF87200732168464A
:103D100001F0A2FE0546002D03DA29462CA0FEF78D
:103D200033FE2846ADE7000067697A50726F746F02
:103D3000636F6C476574446576696365496E666F49
:103D4000204572726F72202C20496C6C6567616C23
:103D500020506172616D0A003030303030303034C4
:103D600000000000303030303030303200000000D1
:103D700030333033303030300000000030333031F9
:103D80003031303000000000313932613265343971
:103D90003964326534636130386561623932636336
:103DA0003364366663306431000000003638616584
:103DB00034373262313034643432653161646635AF
:103DC00035303664316338376634613300000000C3
:103DD0004552523A20756172742077726974652079
:103DE0006572726F72202564200A00002DE9FE4F73
:103DF00080460E4617464FF0000B00200290814689
:103E00008246002534460090B8F1000F01D006B17B
:103E100037B955A0FEF7B8FD4FF0FF30BDE8FE8F73
:103E2000404601F03FFC1FFA80FABAF1000F02D1C0
:103E30004FF0FF30F2E74FF0000969E0012201A9DD
:103E4000404601F06CFC8346BBF1000F5ED0524847
:103E50000078FF281FD19DF80400FF281BD14F4890
:103E6000007848B9FF202070607002204C4908801B
:103E700001204A49087040E04948008804283CDD98
:103E800047480088A84238D0FF2020706070022088
:103E90004349088031E040480078FF2803D19DF86D
:103EA0000400552829D03D480078012825D19DF8E7
:103EB00004003B490988605439480088401C38494F
:103EC000088008460088042817DD0094009C60885C
:103ED000FFF726FA001D85B2432D01D2042D07DC21
:103EE00000202E4908702E4908802EA0FEF74CFDB8
:103EF0002B480088A84200D10CE09DF80400264918
:103F0000087038480078401C3649087009F10109EA
:103F1000D14593DB00BF22480088042822DD2048D9
:103F20000088A8421ED11E480188204600F0ECFC03
:103F300002901B480088401E215C029881420AD1F1
:103F40003D800020154908701549088025490870F2
:103F50001149087062E70020104908701049088074
:103F6000801E5BE7012059E767697A50726F746FB2
:103F7000636F6C4765744F6E655061636B65742049
:103F80004572726F72202C20496C6C6567616C20E1
:103F9000506172616D0A0000600800205C0800201A
:103FA0005E0800204552523A74686520646174616D
:103FB000206C656E67746820697320746F6F206C65
:103FC0006F6E67206F7220746F6F20736D616C6C01
:103FD0002C2077696C6C206162616E646F6E200AC0
:103FE000000000006108002010B504462CB907A0AD
:103FF000FEF7CAFC4FF0FF3010BD0020206060606B
:10400000FF20207060700020F6E700004552523A11
:104010002067697A50726F746F636F6C4865616472
:10402000496E6974206865616420697320656D70EC
:104030007479200A000000002DE9F04FA3B0064675
:104040008B461746994600202290824680460025DE
:104050006C46BBF1000F06D130A0FEF795FC681E40
:1040600023B0BDE8F08FB9F1010F06D196F80880B2
:1040700008F10600384485B201E0781D85B22B4670
:10408000424639462BA0FEF77FFCFF2004F8010BC7
:1040900004F8010B281204F8010B04F8015B3079D5
:1040A000401C04F8010B707904F8010B002004F89F
:1040B000010B04F8019B4FF0080AB9F1010F0CD174
:1040C00004F8018B0AF1010A0DEB0A00424606F1E1
:1040D0000901FCF727F8C24444442FB10DEB0A0054
:1040E0003A465946FCF71EF8291D684600F00CFCBC
:1040F0000146E81C0DF80010291D684601F0ACFCD3
:1041000022902298002806DA14A02299FEF73CFC9F
:104110006FF00100A4E70020A2E700005B455252C7
:104120005D202064617461204973204E756C6C20A1
:104130000A0000006C656E203D202564202C207351
:104140004469644C656E203D202564202C646174B4
:10415000615F6C656E203D2025640A007561727494
:10416000207772697465206572726F7220256420F1
:104170000A0000002DE9F04780460C4617461D4610
:10418000089E94F800900CB105B136B92FA0FEF747
:10419000FBFB4FF0FF30BDE8F087B8F1000F53D1C3
:1041A0001B213648FBF7D7FFB9F1010F06D0B9F153
:1041B000020F11D0B9F1050F44D123E02F4A7B3211
:1041C0002E49601CFFF770FA01202C49DF39087076
:1041D00000250020306036E028496C3101F13B00B9
:1041E000FFF760FB50B90F2224496C31681CFBF7C4
:1041F00099FF032028701020306002E04FF0FF305C
:10420000C9E720E07A1E611C1C489B38FBF78AFF37
:10421000781E1A49DF39C1F8880010211748DF38A5
:1042200090F8DF20E0308154E03890F8DF00401C47
:104230001249DF3981F8DF000320087000250020D3
:10424000306000E000BF00BF0020A4E767697A503B
:10425000726F746F636F6C49737375656450726FBE
:1042600063657373204572726F72202C20496C6CE9
:104270006567616C20506172616D0A005F0E0020FD
:1042800070B5044625462CB90EA0FEF77DFB4FF015
:10429000FF3070BD412205F108010E48FBF742FFD7
:1042A0000F210D4890F8302100F2311081540A4856
:1042B00090F83001401C084981F830010520087051
:1042C0000020E6E74E545020697320656D707479C4
:1042D000200A0000400F0020800D002010B5044689
:1042E0002CB9CAA0FEF750FB4FF0FF3010BD20895B
:1042F000FFF716F82081D1480078C0F38000217ABA
:10430000C1F38001884256D0207AC0F38000002893
:1043100029D0207A00F0010078B10021C84890F837
:10432000FA20FB308154FB3890F8FA00401CC44955
:1043300081F8FA00C3A0FEF727FB207AC0F3400003
:10434000002838D00121BE4890F8FA20FB30815473
:10435000FB3890F8FA00401CB94981F8FA00C1A076
:10436000FEF712FB27E0207A00F0010078B100216F
:10437000B34890F8FA20FB308154FB3890F8FA00EB
:10438000401CAF4981F8FA00AEA0FEF7FDFA207A92
:10439000C0F3400078B10221A94890F8FA20FB3020
:1043A0008154FB3890F8FA00401CA54981F8FA00C6
:1043B000B3A0FEF7E9FAA1480078C0F3C000217A63
:1043C000C1F3C00188422CD0207AC1089B480078F4
:1043D00061F3C30099490870207AC0F3C00080B12E
:1043E0000321974890F8FA20FB308154FB3890F86D
:1043F000FA00401C924981F8FA00A8A0FEF7C4FA1E
:104400000FE004218E4890F8FA20FB308154FB38ED
:1044100090F8FA00401C8A4981F8FA00A7A0FEF73C
:10442000B3FA86480078C0F30010217AC1F3001176
:1044300088422CD0207A01098048007861F304106A
:104440007E490870207AC0F3001080B105217C48B5
:1044500090F8FA20FB308154FB3890F8FA00401CA9
:10446000774981F8FA009DA0FEF78EFA0FE0062149
:10447000734890F8FA20FB308154FB3890F8FA002A
:10448000401C6F4981F8FA009CA0FEF77DFA6B484A
:104490000078C0F34010217AC1F3401188422CD03B
:1044A000207A41096548007861F345106349087036
:1044B000207AC0F3401080B10721614890F8FA20BB
:1044C000FB308154FB3890F8FA00401C5C4981F8BD
:1044D000FA0093A0FEF758FA0FE00821584890F828
:1044E000FA20FB308154FB3890F8FA00401C544904
:1044F00081F8FA0091A0FEF747FA50484078C0F3DF
:10450000C001607AC0F3C00081422CD0607AC1083B
:104510004A48407861F3C30048494870607AC0F364
:10452000C00080B10B21464890F8FA20FB3081543E
:10453000FB3890F8FA00401C414981F8FA0087A046
:10454000FEF722FA0FE00C213D4890F8FA20FB30EC
:104550008154FB3890F8FA00401C394981F8FA0080
:1045600085A0FEF711FA35484078C0F30011607A53
:10457000C0F3001081422CD0607A01092F484078A6
:1045800061F304102D494870607AC0F3001080B1C7
:1045900009212B4890F8FA20FB308154FB3890F821
:1045A000FA00401C264981F8FA007BA0FEF7ECF9DE
:1045B0000FE00A21224890F8FA20FB308154FB38A2
:1045C00090F8FA00401C1E4981F8FA0079A0FEF725
:1045D000DBF90D211A4890F8FA20FB308154FB38A2
:1045E00090F8FA00401C164981F8FA00607A00F051
:1045F000070081F8B201084690F8B21174A0FEF7E6
:10460000C3F902200E49087000206FE667697A50EE
:10461000726F746F636F6C4D6F64756C655374610A
:10462000747573204572726F72202C20496C6C6512
:1046300067616C20506172616D0A000062080020A1
:10464000800D00204F6E426F617264696E673A2080
:10465000536F66744150206F7220576562206D6FF2
:1046600064650A004F6E426F617264696E673A203A
:104670004169724C696E6B206D6F64650A000000C1
:104680004F6E426F617264696E673A205374617451
:10469000696F6E206D6F64650A0000005769466996
:1046A000207374617475733A20696E2062696E6458
:1046B000696E67206D6F64650A000000576946697E
:1046C000207374617475733A206F75742062696E1B
:1046D00064696E67206D6F64650A000057694669FA
:1046E000207374617475733A20636F6E6E656374C2
:1046F000656420726F757465720A000057694669B7
:10470000207374617475733A20646973636F6E6E9D
:10471000656374656420726F757465720A000000C9
:1047200057694669207374617475733A20636F6EBC
:104730006E6563746564206D326D0A005769466961
:10474000207374617475733A20646973636F6E6E5D
:104750006563746564206D326D0A000057694669AF
:10476000207374617475733A2061707020636F6E8A
:104770006E6563740A0000005769466920737461AE
:104780007475733A206E6F2061707020636F6E6E67
:104790006563740A000000005769466920737461FC
:1047A0007475733A20696E2074657374206D6F643C
:1047B000650A000057694669207374617475733A1D
:1047C000206F75742074657374206D6F64650A00C2
:1047D00052535349206973202564200A00000000C9
:1047E00070B5044625462CB91AA0FEF7CDF84FF057
:1047F000FF3070BD1C48A9684163A9890187A97B66
:1048000080F83A10A0F5C070D5F80F10C0F8BC11B0
:104810000146B1F8B401FEF783FD1449A1F8B401D3
:10482000D1F8BC01FEF789FD1049C1F8BC010E2189
:104830000E4890F8152100F58B7081540B4890F8C4
:104840001501401C094981F8150104200870002059
:10485000CFE700004552523A204E54502069732051
:10486000656D707479200A00000F0020800D002013
:1048700010B5FFF70FF9044600BFFFF70BF9001B57
:10488000B0F5167FF9D900F0F5FE10BD10B5002483
:104890000E4890F8950000B910BD0DA0FEF774F811
:1048A0000A48B0F8D910963001F0D6F80446074807
:1048B000B0F8D900A04202D00DA0FEF765F8FFF7CE
:1048C000E9F80249C1F8DB0000BFE5E7800D0020F0
:1048D0005761726E696E673A2074696D656F7574A1
:1048E0002C20726573656E642064617461200A0017
:1048F0004552523A20726573656E6420646174613A
:10490000206572726F720A0010B5024600240023FF
:1049100002B109B9002010BD022303E0D05C20449D
:10492000C4B25B1C481E9842F8D82046F3E700004A
:1049300070B504460D462CB90FA0FEF725F84FF0D0
:10494000FF3070BD4B211248FBF705FC2A4621467B
:104950000F48801CFBF7E6FB0D489438A0F8D950AF
:10496000012180F89510FFF795F809499439C1F8AD
:10497000DB000020E5E700004552523A20646174F4
:104980006120697320656D707479200A0000000051
:10499000140E002070B50446094D2CB909A0FDF78E
:1049A000F3FF4FF0FF3070BD2879401C2179884219
:1049B00004D14B210248801EFBF7CDFB0020F2E71B
:1049C000160E00204552523A2064617461206973CA
:1049D00020656D707479200A0000000070B50446EF
:1049E0000D46002624B90AA0FDF7CEFF701E70BD4B
:1049F0002A4621460E4800F0E3FE0646AE4205D0A8
:104A00000CA0FDF7C1FF4FF0FF30F0E73046EEE7B6
:104A10004552523A2067697A507574446174612036
:104A200062756620697320656D707479200A0000D4
:104A3000840F00204552523A204661696C6564201B
:104A4000746F2072625772697465200A000000005A
:104A5000F0B587B005460E46174600242EB91FA0B4
:104A6000FDF792FF601E07B0F0BD6846FFF7BCFA85
:104A700005208DF80400234890F88C10D0F88C00A5
:104A8000401C204AC2F88C00C8B28DF805008DF891
:104A900008501520FEF744FCADF802003A463146B6
:104AA0000DF10900FBF73EFB19216846FFF72CFFCB
:104AB0008DF818001921684600F0CEFF0446002C3E
:104AC00006DA214610A0FDF75FFF6FF00100CAE78C
:104AD00019216846FFF72CFF2046C4E767697A5220
:104AE00065706F727444617461204572726F7220D8
:104AF0002C20496C6C6567616C20506172616D0A95
:104B000000000000800D00204552523A207561726D
:104B100074207772697465206572726F72202564E3
:104B2000200A00002DE9F04704460D461746089E6E
:104B30004FF00009CA46C8461BB94FF0FF30BDE828
:104B4000F08739462846FEF723FC8046B8F1000F6F
:104B500007D1185D05F0070106FA01F10843185561
:104B60001EE0B8F1010F1BD1F0B205F00701C1F151
:104B7000080140FA01F905F00700C0F10801FF2023
:104B8000084100EA060A601C185C40EA0900611C42
:104B90005854185D05F007010AFA01F10843185549
:104BA0000020CCE72DE9F04F8FB005460C461646A5
:104BB0009946189F4FF0000AD34600200E90804679
:104BC000B9F1000F00D027B94FF0FF300FB0BDE8AA
:104BD000F08F3A46494601A8FBF7A4FA012F09D9FC
:104BE000394601A8FEF7E9FBB0F1FF3F02D14FF0D3
:104BF000FF30EBE731462046FEF7CAFB8246BAF1AA
:104C0000000F0CD101A8405D04F007010841C6F176
:104C10000802FF211141084040EA080821E0BAF1EA
:104C2000010F1ED101A9681C085C04F00701C1F145
:104C30000801711AC1F10802FF21114100EA010BBC
:104C400001A8405D04F0070108410E9004F0070040
:104C5000C0F108010BFA01F040EA08080E9848EA92
:104C600000084046B2E7000002480068401C0149C5
:104C7000086070475008002010B50346002002FB72
:104C8000031010BD10B503460020541AB4FBF3F016
:104C900010BD00002DE9FF5F07460E4693464FF01A
:104CA00000083446B1463546B24607B126B94FF042
:104CB000FF3004B0BDE8F09F4FF00008B8E0781C6A
:104CC00010F808001A286ED2DFE800F0808182AC6C
:104CD000AC83848586ACACACAC8791A08D0D162AD4
:104CE0003D525B646E77207854490870084601781D
:104CF00053A0FDF749FE96E0607850494870084699
:104D0000417856A0FDF740FE4C484078012803D179
:104D100000205749086002E001205549086082E000
:104D2000A078464988700846817852A0FDF72CFE8D
:104D300042488078012802D15449086002E00020EE
:104D4000524908606FE0E0783C49C8700846C17875
:104D50004FA0FDF719FE3948C078012803D14B490F
:104D6000091D086003E000204849091D08605AE059
:104D7000606832494860084641684BA0FDF704FE70
:104D800051E0A0682D498860084681684CA0FDF775
:104D9000FBFD48E0E0682949C8600846C1684EA0AC
:104DA000FDF7F2FD3FE03DE0206924490861084637
:104DB00001694FA0FDF7E8FD35E060691F494861D2
:104DC0000846416951A0FDF7DFFD2CE02BE02AE009
:104DD00029E028E027E026E025E099F8001051A01E
:104DE000FDF7D2FD1FE052A0FDF7CEFD1BE0A97933
:104DF0006A792B79A868CDE90032CDE90210EB7809
:104E0000AA7829884FA0FDF7BFFD0CE058A0FDF758
:104E1000BBFD5CA0FDF7B8FD9AF800105DA0FDF7A2
:104E2000B3FD00E000BF00BF08F1010000F0FF0883
:104E3000387840453FF743AF00203AE7540D002053
:104E40004576743A204556454E545F6175746F5FE0
:104E50006D6F6465202564200A0000004576743A71
:104E6000204556454E545F6C6564202564200A0039
:104E7000B80122424576743A204556454E545F7734
:104E8000696E64202564200A00000000A081214290
:104E90004576743A204556454E545F776174657285
:104EA000202564200A0000004576743A4556454E98
:104EB000545F74656D705F646F6F722025640A00C3
:104EC0004576743A4556454E545F68756D695F6422
:104ED0006F6F722025640A004576743A4556454E38
:104EE000545F736F696C5F646F6F722025640A0092
:104EF0004576743A4556454E545F6C696768745FF1
:104F0000646F6F722025640A000000004576743AD1
:104F10004556454E545F636F325F646F6F72202554
:104F2000640A0000525353492025640A000000001F
:104F30005452414E53504152454E545F44415441A6
:104F4000200A0000574946495F4E5450203A205BE2
:104F500025642D25642D256420253032643A2530C2
:104F600032643A253032645D5B25645D200A0000BE
:104F70004D4F44554C4520494E464F202E2E2E0A6B
:104F800000000000574946204D4F44554C45202E07
:104F90002E2E0A006D6F64756C6554797065203A29
:104FA000205B25645D200A002DE9F041A6B005468E
:104FB000002600200390029000248046002735B987
:104FC00082A0FDF7E1FC601E26B0BDE8F081FEF78F
:104FD00067FD03AA87498848FEF708FF0646002EAA
:104FE00071D186A0FDF7D0FC824C20790F284FD0DC
:104FF0000ADC0E2873D2DFE800F07216721A7272A1
:10500000433872724472453C182852D006DC11288D
:1050100047D0142846D0162861D134E0222854D035
:105020002A285CD130E02046FEF722FE5FE0E279DC
:10503000A17977A0FDF7A8FC02A8009007F109006C
:10504000BDF80C301A1A6B480830C11904AB404641
:10505000FFF790F840B9E37904A92046029AFEF7D9
:10506000EBFF6FA0FDF790FC41E02046FEF75EFDF0
:105070003DE02046FEF75AFD2046FFF72FF936E0C7
:1050800000BF00BF00BF00BF2046FFF783FC2EE03B
:105090002046FEF74BFD65A0FDF776FCFFF7E8FB29
:1050A00025E024E02046FFF775FC65A0FDF76CFCC9
:1050B0001DE02046FFF76EFC2046FFF791FB68A03D
:1050C000FDF762FC13E013E009E02046FFF762FC05
:1050D0002046FFF7D5F868A0FDF756FC07E002214F
:1050E0002046FEF773FD6BA0FDF74EFC00BF0DE000
:1050F00016F1020F0AD13F4C01212046FEF766FD52
:105100006AA0FDF741FC6FF001005DE73948401EE1
:105110000078062853D2DFE800F05203142531410D
:1051200000203449491E08702C2201F5AD71A1F10F
:105130007B00FFF7AFFD1B212E48DE30FBF70BF89D
:105140003EE000202B49491E0870012201F5D9716B
:10515000A1F1B800FFF79EFD1B212648F930FAF7B0
:10516000FAFF2DE000202349491E0870084644310B
:10517000D0F88820DF30FFF78DFD21E000201D49A9
:10518000491E08700C2201F5DA71A1F19F00FFF7AA
:1051900081FD1B214B48FAF7DEFF11E00020154985
:1051A000491E0870412201F5E071A1F19000FFF75E
:1051B00071FD412143481B30FAF7CDFF00E000BFED
:1051C00000BF2846FEF708FC0020FDE647697A7715
:1051D00069747348616E646C65204572726F7220E9
:1051E0002C20496C6C6567616C20506172616D0A9E
:1051F00000000000810D0020840F0020476574200E
:105200004F6E65205061636B6574210A00000000D9
:10521000666C6167202578202578200A0000000050
:1052200041636B44617461203A200A007265706FBB
:1052300072743A4D4355207265626F6F74210A0093
:1052400041636B2050524F44554354494F4E5F4D7C
:105250004F44452073756363657373200A00000033
:1052600041636B204745545F555454207375636305
:10527000657373200A00000041636B204745545F4B
:105280004D6F64756C652073756363657373200A75
:10529000000000004552523A20636D6420636F6441
:1052A00065206572726F72210A0000004552523A01
:1052B00020636865636B2073756D206572726F7211
:1052C000210A0000950E002010B586200A490860CA
:1052D0000A48C860084600F017FA18B908A0FDF798
:1052E00053FB02E00BA0FDF74FFB4FF401710E489A
:1052F000FAF731FF10BD0000840F0020940F00204A
:10530000726243726561746520537563636573737C
:10531000200A00007262437265617465204661690B
:105320006C64200A00000000800D002030B587B0BA
:1053300005460024062D7CD2DFE805F003305F909F
:10534000BDEA01A8FEF750FE0B208DF808008B483F
:1053500090F88C10D0F88C00401C884AC2F88C0061
:10536000C8B28DF809000520FDF7DAFFADF8060098
:10537000092101A8FFF7C8FA8DF80C00092101A83E
:1053800000F06AFB0446002C03DA21467CA0FDF7FE
:10539000FBFA092101A8FFF7CBFAEAE004A8FEF71F
:1053A00023FE09208DF81400744890F88C10D0F872
:1053B0008C00401C714AC2F88C00C8B28DF81500F0
:1053C0008DF818500620FDF7ABFFADF812000A214A
:1053D00004A8FFF799FA8DF819000A2104A800F033
:1053E0003BFB0446002C03DA214665A0FDF7CCFA0E
:1053F0000A2104A8FFF79CFABBE004A8FEF7F4FD1D
:1054000009208DF814005D4890F88C10D0F88C00BD
:10541000401C5A4AC2F88C00C8B28DF815008DF8AD
:1054200018500620FDF77CFFADF812000A2104A8F1
:1054300000E09AE0FFF768FA8DF819000A2104A845
:1054400000F00AFB0446002C03DA21464CA0FDF7CD
:105450009BFA0A2104A8FFF76BFA8AE001A8FEF77D
:10546000C3FD13208DF80800444890F88C10D0F844
:105470008C00401C414AC2F88C00C8B28DF809006B
:105480000520FDF74DFFADF80600092101A8FFF743
:105490003BFA8DF80C00092101A800F0DDFA044662
:1054A000002C03DA214636A0FDF76EFA092101A887
:1054B000FFF73EFA5DE001A8FEF796FD15208DF896
:1054C00008002E4890F88C10D0F88C00401C2B4A15
:1054D000C2F88C00C8B28DF809000520FDF720FF46
:1054E000ADF80600092101A8FFF70EFA8DF80C00AF
:1054F000092101A800F0B0FA0446002C03DA214685
:105500001FA0FDF741FA092101A8FFF711FA30E0C9
:1055100001A8FEF769FD29208DF80800174890F8CA
:105520008C10D0F88C00401C144AC2F88C00C8B211
:105530008DF809000520FDF7F3FEADF806000921FE
:1055400001A8FFF7E1F98DF80C00092101A800F08E
:1055500083FA0446002C03DA214609A0FDF714FA69
:10556000092101A8FFF7E4F903E00CA0FDF70CFA0C
:1055700000BF00BF204607B030BD0000800D0020F6
:105580004552523A207561727420777269746520B1
:105590006572726F72202564200A00004552523AEB
:1055A000204366674D6F6465206572726F72210AD1
:1055B00000000000FDF762FEFBF7DAFF4FF4165023
:1055C00000F0F4F94FF4E13000F048F94FF41650D0
:1055D00000F090F9FBF738FAFBF7F0F9FBF730FD34
:1055E000FBF796F9FCF7D8FF00F080FAFFF76CFEA6
:1055F00001201C49086034E01B484088B0F57A7FE0
:1056000006DDFDF7AFFE00F053FA00201649488092
:10561000FBF794FDFCF784FE1448FFF7C5FC144823
:105620000078012802D1FCF7FFF91AE01048007851
:10563000022802D1FCF720FC13E00D480078032873
:1056400002D1FCF713FD0CE009480078042802D1D0
:10565000FCF760FB05E006480078052801D1FCF75F
:10566000F3FAC9E7B80122424A080020540D00208D
:105670003D080020012080F3138800BF00BF0748C9
:10568000006800F4E06006490843001D0349086013
:10569000BFF34F8F00BF00BFFEE700000CED00E03E
:1056A0000000FA0500B5024612B94FF0FF3000BD08
:1056B00050689168884201D10020F8E750689168ED
:1056C000884203D290685168401AF0E7104600F013
:1056D00014F851689368C91A401AE8E730B50446CF
:1056E00014B94FF0FF3030BD204600F006F80546F3
:1056F0002046FFF7D7FF281AF5E7014611B94FF00A
:10570000FF3070470868FCE7014611B94FF0FF30E1
:105710007047C8684860C86888600020F8E72DE9CD
:10572000F04104460F461646002514B9681EBDE830
:10573000F08117B94FF0FF30F9E76068A16888423F
:1057400014D22046FFF7AEFFB04201D9304602E046
:105750002046FFF7A7FF054661682A463846FAF754
:10576000E1FC6068284460602846E0E72046FFF7D7
:10577000C4FF6168E268891A401AB0420AD9354606
:1057800061682A463846FAF7CDFC606828446060B4
:105790002846CCE72046FFF7B0FF6168E268891A27
:1057A000451A61682A463846FAF7BCFCE068606032
:1057B000721B79192046FFF7B2FF05442846B6E769
:1057C0002DE9F04104460F461546002604B11FB9E5
:1057D0004FF0FF30BDE8F0812046FFF77FFFA84281
:1057E00002D86FF00100F5E76068A16888422AD806
:1057F0002046FFF782FFA168E268891A461AB5427F
:1058000013D8A0682A463946FAF78CFCA0682844C9
:10581000A0602046FFF771FFE1680844A168884254
:1058200001D1E068A0602846D4E7A0683246394636
:10583000FAF778FCE068A060AA1BB9192046FFF7C8
:10584000BFFF3044C6E7A0682A463946FAF76AFC2B
:10585000A0682844A0602846BCE7000010B586B0C8
:105860000446012144F20400FCF7A8FC4FF4007048
:10587000ADF8140003208DF8160018208DF81700DD
:1058800005A91A48FBF724FA4FF48060ADF814001C
:1058900004208DF8170005A91448FBF719FA2520F4
:1058A0008DF8000001208DF8010003208DF8020022
:1058B00001208DF803006846FBF7CEFD019400201F
:1058C000ADF80800ADF80A00ADF80C00ADF8100016
:1058D0000C20ADF80E0001A90548FCF7DDFF012101
:1058E0000348FCF770FF06B010BD0000000801403F
:1058F0000038014010B586B0044601210420FCF7B1
:105900005DFC01214804FCF749FC18208DF81700C4
:105910000420ADF8140003208DF8160005A92148D5
:10592000FBF7D6F904208DF817000820ADF8140015
:1059300003208DF8160005A91A48FBF7C9F9019450
:105940000020ADF810000C20ADF80E000020ADF8DE
:105950000C00ADF80A00ADF8080001A91248FCF7E8
:105960009BFF01211048FCF72EFF012240F2255138
:105970000D48FCF76BFF012240F224410A48FCF776
:1059800065FF26208DF8000001208DF8030000201F
:105990008DF8010001208DF802006846FBF75CFDE0
:1059A00006B010BD000801400044004010B586B0AC
:1059B000044601210820FCF701FC01218804FCF7C2
:1059C000EDFB18208DF817004FF48060ADF814003F
:1059D00003208DF8160005A91D48FBF779F904206E
:1059E0008DF817004002ADF8140003208DF8160062
:1059F00005A91748FBF76CF901940020ADF81000D9
:105A00000C20ADF80E000020ADF80C00ADF80A0037
:105A1000ADF8080001A90F48FCF73EFF01210D4831
:105A2000FCF7D1FE012240F225510A48FCF70EFF97
:105A300027208DF8000001208DF8030000208DF84C
:105A400001008DF802006846FBF706FD06B010BDA8
:105A5000000C01400048004070B505460E46002489
:105A60000DB9601E70BD00241BE0295D0F48FCF7D6
:105A700084FF00BF40210D48FCF7B1FE0028F9D09B
:105A8000022C0DD3285DFF280AD155210748FCF7C9
:105A900074FF00BF40210548FCF7A1FE0028F9D0A3
:105AA000641CB442E1D33046DCE70000004800400B
:105AB000084800780849886108480078C8610848A3
:105AC0000088086207488068486207480088886242
:105AD0007047000040080020540D002041080020BD
